{
  "address": "0x1603af547D4dbcAd0222102A33b181D502Df7f3A",
  "abi": [
    {
      "inputs": [
        {
          "internalType": "string",
          "name": "name",
          "type": "string"
        },
        {
          "internalType": "string",
          "name": "version",
          "type": "string"
        }
      ],
      "stateMutability": "nonpayable",
      "type": "constructor"
    },
    {
      "inputs": [
        {
          "internalType": "address",
          "name": "from",
          "type": "address"
        },
        {
          "internalType": "address",
          "name": "to",
          "type": "address"
        },
        {
          "internalType": "uint256",
          "name": "value",
          "type": "uint256"
        },
        {
          "internalType": "bytes",
          "name": "signature",
          "type": "bytes"
        }
      ],
      "name": "recoverV4",
      "outputs": [
        {
          "internalType": "address",
          "name": "",
          "type": "address"
        }
      ],
      "stateMutability": "view",
      "type": "function"
    }
  ],
  "transactionHash": "0x7842ae92083bda42cee3905cae47e432eca968e2a7581fcd9ddccbe145fa24b1",
  "args": [
    "Demo",
    "1.0"
  ],
  "numDeployments": 1,
  "solcInputHash": "76937353a11d76830c297f35cbc34928",
  "bytecode": "0x61014060405234801561001157600080fd5b506040516109c63803806109c683398101604081905261003091610172565b815160209283012081519183019190912060e08290526101008190524660a0818152604080517f8b73c3c69bb8fe3d512ecc4cf759cc79239f7b179b0ffacaa9a75d522b39400f81880181905281830196909652606081810195909552608080820194909452308184018190528251808303909401845260c091820190925282519290960191909120909152901b909152610120526101e8565b600082601f8301126100da578081fd5b81516001600160401b03808211156100f4576100f46101d2565b604051601f8301601f19908116603f0116810190828211818310171561011c5761011c6101d2565b81604052838152602092508683858801011115610137578485fd5b8491505b83821015610158578582018301518183018401529082019061013b565b8382111561016857848385830101525b9695505050505050565b60008060408385031215610184578182fd5b82516001600160401b038082111561019a578384fd5b6101a6868387016100ca565b935060208501519150808211156101bb578283fd5b506101c8858286016100ca565b9150509250929050565b634e487b7160e01b600052604160045260246000fd5b60805160a05160c05160601c60e051610100516101205161078c61023a60003960006101ef0152600061023e01526000610219015260006101720152600061019c015260006101c6015261078c6000f3fe608060405234801561001057600080fd5b506004361061002b5760003560e01c8063ab6df5c214610030575b600080fd5b61004361003e366004610647565b61005f565b6040516001600160a01b03909116815260200160405180910390f35b6000806100d77f6de4c3c7c6c811c41bed3b21b4840bd6a5033129a6704aaab4ead3b14c038eaa8787876040516020016100bc94939291909384526001600160a01b03928316602085015291166040830152606082015260800190565b604051602081830303815290604052805190602001206100ed565b90506100e38184610141565b9695505050505050565b600061013b6100fa610165565b8360405161190160f01b6020820152602281018390526042810182905260009060620160405160208183030381529060405280519060200120905092915050565b92915050565b6000806000610150858561028c565b9150915061015d816102fc565b509392505050565b6000306001600160a01b037f0000000000000000000000000000000000000000000000000000000000000000161480156101be57507f000000000000000000000000000000000000000000000000000000000000000046145b156101e857507f000000000000000000000000000000000000000000000000000000000000000090565b50604080517f00000000000000000000000000000000000000000000000000000000000000006020808301919091527f0000000000000000000000000000000000000000000000000000000000000000828401527f000000000000000000000000000000000000000000000000000000000000000060608301524660808301523060a0808401919091528351808403909101815260c0909201909252805191012090565b6000808251604114156102c35760208301516040840151606085015160001a6102b787828585610505565b945094505050506102f5565b8251604014156102ed57602083015160408401516102e28683836105f2565b9350935050506102f5565b506000905060025b9250929050565b600081600481111561031e57634e487b7160e01b600052602160045260246000fd5b14156103275750565b600181600481111561034957634e487b7160e01b600052602160045260246000fd5b141561039c5760405162461bcd60e51b815260206004820152601860248201527f45434453413a20696e76616c6964207369676e6174757265000000000000000060448201526064015b60405180910390fd5b60028160048111156103be57634e487b7160e01b600052602160045260246000fd5b141561040c5760405162461bcd60e51b815260206004820152601f60248201527f45434453413a20696e76616c6964207369676e6174757265206c656e677468006044820152606401610393565b600381600481111561042e57634e487b7160e01b600052602160045260246000fd5b14156104875760405162461bcd60e51b815260206004820152602260248201527f45434453413a20696e76616c6964207369676e6174757265202773272076616c604482015261756560f01b6064820152608401610393565b60048160048111156104a957634e487b7160e01b600052602160045260246000fd5b14156105025760405162461bcd60e51b815260206004820152602260248201527f45434453413a20696e76616c6964207369676e6174757265202776272076616c604482015261756560f01b6064820152608401610393565b50565b6000807f7fffffffffffffffffffffffffffffff5d576e7357a4501ddfe92f46681b20a083111561053c57506000905060036105e9565b8460ff16601b1415801561055457508460ff16601c14155b1561056557506000905060046105e9565b6040805160008082526020820180845289905260ff881692820192909252606081018690526080810185905260019060a0016020604051602081039080840390855afa1580156105b9573d6000803e3d6000fd5b5050604051601f1901519150506001600160a01b0381166105e2576000600192509250506105e9565b9150600090505b94509492505050565b6000806001600160ff1b0383168161060f60ff86901c601b61071c565b905061061d87828885610505565b935093505050935093915050565b80356001600160a01b038116811461064257600080fd5b919050565b6000806000806080858703121561065c578384fd5b6106658561062b565b93506106736020860161062b565b925060408501359150606085013567ffffffffffffffff80821115610696578283fd5b818701915087601f8301126106a9578283fd5b8135818111156106bb576106bb610740565b604051601f8201601f19908116603f011681019083821181831017156106e3576106e3610740565b816040528281528a60208487010111156106fb578586fd5b82602086016020830137918201602001949094529598949750929550505050565b6000821982111561073b57634e487b7160e01b81526011600452602481fd5b500190565b634e487b7160e01b600052604160045260246000fdfea264697066735822122074bd128332cdf0284e8e0d81d8b991218d21f93fc94f5e7995c859856c8851bd64736f6c63430008040033",
  "devdoc": {
    "kind": "dev",
    "methods": {},
    "version": 1
  },
  "userdoc": {
    "kind": "user",
    "methods": {},
    "version": 1
  },
  "storageLayout": {
    "storage": [],
    "types": null
  }
}